{
  "contractName": "Oracle",
  "abi": [
    {
      "inputs": [],
      "payable": false,
      "stateMutability": "nonpayable",
      "type": "constructor"
    },
    {
      "anonymous": false,
      "inputs": [
        {
          "indexed": true,
          "name": "createOrderAddress",
          "type": "address"
        },
        {
          "indexed": false,
          "name": "investor",
          "type": "address"
        }
      ],
      "name": "CallbackHasKyc",
      "type": "event"
    },
    {
      "anonymous": false,
      "inputs": [
        {
          "indexed": true,
          "name": "createOrderAddress",
          "type": "address"
        },
        {
          "indexed": true,
          "name": "index",
          "type": "uint256"
        },
        {
          "indexed": false,
          "name": "investor",
          "type": "address"
        },
        {
          "indexed": false,
          "name": "brokers",
          "type": "address[]"
        },
        {
          "indexed": false,
          "name": "executionDate",
          "type": "uint256"
        }
      ],
      "name": "CallbackOrderCreated",
      "type": "event"
    },
    {
      "anonymous": false,
      "inputs": [
        {
          "indexed": true,
          "name": "createOrderAddress",
          "type": "address"
        },
        {
          "indexed": true,
          "name": "index",
          "type": "uint256"
        },
        {
          "indexed": false,
          "name": "state",
          "type": "uint256"
        }
      ],
      "name": "CallbackOrderStateUpdated",
      "type": "event"
    },
    {
      "anonymous": false,
      "inputs": [
        {
          "indexed": true,
          "name": "createOrderAddress",
          "type": "address"
        },
        {
          "indexed": true,
          "name": "index",
          "type": "uint256"
        },
        {
          "indexed": false,
          "name": "broker",
          "type": "address"
        },
        {
          "indexed": false,
          "name": "price",
          "type": "bytes32"
        }
      ],
      "name": "CallbackOrderSetPrice",
      "type": "event"
    },
    {
      "anonymous": false,
      "inputs": [
        {
          "indexed": true,
          "name": "createOrderAddress",
          "type": "address"
        },
        {
          "indexed": false,
          "name": "index",
          "type": "uint256"
        },
        {
          "indexed": false,
          "name": "broker",
          "type": "address"
        }
      ],
      "name": "CallbackOrderInvestorConfirm",
      "type": "event"
    },
    {
      "anonymous": false,
      "inputs": [
        {
          "indexed": true,
          "name": "createOrderAddress",
          "type": "address"
        },
        {
          "indexed": false,
          "name": "index",
          "type": "uint256"
        },
        {
          "indexed": false,
          "name": "broker",
          "type": "address"
        }
      ],
      "name": "CallbackOrderBrokerConfirm",
      "type": "event"
    },
    {
      "anonymous": false,
      "inputs": [
        {
          "indexed": true,
          "name": "tokenAddress",
          "type": "address"
        },
        {
          "indexed": false,
          "name": "name",
          "type": "string"
        },
        {
          "indexed": false,
          "name": "decimals",
          "type": "uint8"
        },
        {
          "indexed": false,
          "name": "symbol",
          "type": "string"
        },
        {
          "indexed": false,
          "name": "cutoffTime",
          "type": "uint256"
        }
      ],
      "name": "CallbackTokenCreated",
      "type": "event"
    },
    {
      "anonymous": false,
      "inputs": [
        {
          "indexed": true,
          "name": "tokenAddress",
          "type": "address"
        }
      ],
      "name": "CallbackTokenHoldingsRemoved",
      "type": "event"
    },
    {
      "anonymous": false,
      "inputs": [
        {
          "indexed": true,
          "name": "tokenAddress",
          "type": "address"
        },
        {
          "indexed": false,
          "name": "ticker",
          "type": "bytes32"
        },
        {
          "indexed": false,
          "name": "percent",
          "type": "uint16"
        }
      ],
      "name": "CallbackTokenHoldingAdded",
      "type": "event"
    },
    {
      "constant": false,
      "inputs": [
        {
          "name": "tokenAddress",
          "type": "address"
        }
      ],
      "name": "emitTokenHoldingsRemoved",
      "outputs": [],
      "payable": false,
      "stateMutability": "nonpayable",
      "type": "function"
    },
    {
      "constant": false,
      "inputs": [
        {
          "name": "tokenAddress",
          "type": "address"
        },
        {
          "name": "ticker",
          "type": "bytes32"
        },
        {
          "name": "percent",
          "type": "uint16"
        }
      ],
      "name": "emitTokenHoldingAdded",
      "outputs": [],
      "payable": false,
      "stateMutability": "nonpayable",
      "type": "function"
    },
    {
      "constant": false,
      "inputs": [
        {
          "name": "createOrderAddress",
          "type": "address"
        },
        {
          "name": "investor",
          "type": "address"
        }
      ],
      "name": "emitHasKyc",
      "outputs": [],
      "payable": false,
      "stateMutability": "nonpayable",
      "type": "function"
    },
    {
      "constant": false,
      "inputs": [
        {
          "name": "createOrderAddress",
          "type": "address"
        },
        {
          "name": "index",
          "type": "uint256"
        },
        {
          "name": "investor",
          "type": "address"
        },
        {
          "name": "brokers",
          "type": "address[]"
        },
        {
          "name": "executionDate",
          "type": "uint256"
        }
      ],
      "name": "emitOrderCreated",
      "outputs": [],
      "payable": false,
      "stateMutability": "nonpayable",
      "type": "function"
    },
    {
      "constant": false,
      "inputs": [
        {
          "name": "createOrderAddress",
          "type": "address"
        },
        {
          "name": "index",
          "type": "uint256"
        },
        {
          "name": "state",
          "type": "uint256"
        }
      ],
      "name": "emitOrderStateUpdated",
      "outputs": [],
      "payable": false,
      "stateMutability": "nonpayable",
      "type": "function"
    },
    {
      "constant": false,
      "inputs": [
        {
          "name": "tokenAddress",
          "type": "address"
        },
        {
          "name": "name",
          "type": "string"
        },
        {
          "name": "decimals",
          "type": "uint8"
        },
        {
          "name": "symbol",
          "type": "string"
        },
        {
          "name": "cutoffTime",
          "type": "uint256"
        }
      ],
      "name": "emitTokenCreated",
      "outputs": [],
      "payable": false,
      "stateMutability": "nonpayable",
      "type": "function"
    },
    {
      "constant": false,
      "inputs": [
        {
          "name": "createOrderAddress",
          "type": "address"
        },
        {
          "name": "index",
          "type": "uint256"
        },
        {
          "name": "broker",
          "type": "address"
        },
        {
          "name": "price",
          "type": "bytes32"
        }
      ],
      "name": "emitOrderSetPrice",
      "outputs": [],
      "payable": false,
      "stateMutability": "nonpayable",
      "type": "function"
    },
    {
      "constant": false,
      "inputs": [
        {
          "name": "createOrderAddress",
          "type": "address"
        },
        {
          "name": "index",
          "type": "uint256"
        },
        {
          "name": "broker",
          "type": "address"
        }
      ],
      "name": "emitOrderInvestorConfirm",
      "outputs": [],
      "payable": false,
      "stateMutability": "nonpayable",
      "type": "function"
    },
    {
      "constant": false,
      "inputs": [
        {
          "name": "createOrderAddress",
          "type": "address"
        },
        {
          "name": "index",
          "type": "uint256"
        },
        {
          "name": "broker",
          "type": "address"
        }
      ],
      "name": "emitOrderBrokerConfirm",
      "outputs": [],
      "payable": false,
      "stateMutability": "nonpayable",
      "type": "function"
    }
  ],
  "bytecode": "0x608060405234801561001057600080fd5b50610a4d806100206000396000f300608060405260043610610099576000357c0100000000000000000000000000000000000000000000000000000000900463ffffffff16806314ee46661461009e578063278be134146101015780632ea96243146101585780633677bb7e146101c55780634bf44d301461027f5780635c924efd146102de578063763548f814610359578063972474421461039c578063b26ced1914610409575b600080fd5b3480156100aa57600080fd5b506100ff600480360381019080803573ffffffffffffffffffffffffffffffffffffffff169060200190929190803573ffffffffffffffffffffffffffffffffffffffff1690602001909291905050506104ef565b005b34801561010d57600080fd5b50610156600480360381019080803573ffffffffffffffffffffffffffffffffffffffff169060200190929190803590602001909291908035906020019092919050505061056d565b005b34801561016457600080fd5b506101c3600480360381019080803573ffffffffffffffffffffffffffffffffffffffff16906020019092919080359060200190929190803573ffffffffffffffffffffffffffffffffffffffff1690602001909291905050506105c1565b005b3480156101d157600080fd5b5061027d600480360381019080803573ffffffffffffffffffffffffffffffffffffffff16906020019092919080359060200190929190803573ffffffffffffffffffffffffffffffffffffffff1690602001909291908035906020019082018035906020019080806020026020016040519081016040528093929190818152602001838360200280828437820191505050505050919291929080359060200190929190505050610648565b005b34801561028b57600080fd5b506102dc600480360381019080803573ffffffffffffffffffffffffffffffffffffffff1690602001909291908035600019169060200190929190803561ffff16906020019092919050505061071b565b005b3480156102ea57600080fd5b50610357600480360381019080803573ffffffffffffffffffffffffffffffffffffffff16906020019092919080359060200190929190803573ffffffffffffffffffffffffffffffffffffffff1690602001909291908035600019169060200190929190505050610786565b005b34801561036557600080fd5b5061039a600480360381019080803573ffffffffffffffffffffffffffffffffffffffff169060200190929190505050610817565b005b3480156103a857600080fd5b50610407600480360381019080803573ffffffffffffffffffffffffffffffffffffffff16906020019092919080359060200190929190803573ffffffffffffffffffffffffffffffffffffffff16906020019092919050505061085d565b005b34801561041557600080fd5b506104ed600480360381019080803573ffffffffffffffffffffffffffffffffffffffff169060200190929190803590602001908201803590602001908080601f0160208091040260200160405190810160405280939291908181526020018383808284378201915050505050509192919290803560ff169060200190929190803590602001908201803590602001908080601f0160208091040260200160405190810160405280939291908181526020018383808284378201915050505050509192919290803590602001909291905050506108e4565b005b8173ffffffffffffffffffffffffffffffffffffffff167f26102d64d439aa09b358df76ae5d6e91520d4068e414fe20e9ca4e649fb5f2ed82604051808273ffffffffffffffffffffffffffffffffffffffff1673ffffffffffffffffffffffffffffffffffffffff16815260200191505060405180910390a25050565b818373ffffffffffffffffffffffffffffffffffffffff167f84c57d159fb2db3daa9245f14843d2993f46f20972b471a376db2e97dfb2e816836040518082815260200191505060405180910390a3505050565b8273ffffffffffffffffffffffffffffffffffffffff167fb993681c172f3df7d90747aac5d69488127760ebc5790c6e769c72422f17763b8383604051808381526020018273ffffffffffffffffffffffffffffffffffffffff1673ffffffffffffffffffffffffffffffffffffffff1681526020019250505060405180910390a2505050565b838573ffffffffffffffffffffffffffffffffffffffff167f44975280d4d8d57027860e8a83f59d97e076b554c0caa9c0f9cf51f844ac2d2e858585604051808473ffffffffffffffffffffffffffffffffffffffff1673ffffffffffffffffffffffffffffffffffffffff16815260200180602001838152602001828103825284818151815260200191508051906020019060200280838360005b838110156106ff5780820151818401526020810190506106e4565b5050505090500194505050505060405180910390a35050505050565b8273ffffffffffffffffffffffffffffffffffffffff167f9cbc99ffc345209b4d858324fbf45585e7f02e612076046c3832213e7d30272083836040518083600019166000191681526020018261ffff1661ffff1681526020019250505060405180910390a2505050565b828473ffffffffffffffffffffffffffffffffffffffff167f7d7d28792b00e5f11931d01cf62d5fa06f7c317e3e26da32e8872e44a57417e18484604051808373ffffffffffffffffffffffffffffffffffffffff1673ffffffffffffffffffffffffffffffffffffffff16815260200182600019166000191681526020019250505060405180910390a350505050565b8073ffffffffffffffffffffffffffffffffffffffff167f097f8408c6122252edafbe06d99b933bc9651f4f40ff363f1adf71382a5e7d0660405160405180910390a250565b8273ffffffffffffffffffffffffffffffffffffffff167fdc189876140be7743404d1bc1dd4e2e7698340571822c95430601cc55de4433f8383604051808381526020018273ffffffffffffffffffffffffffffffffffffffff1673ffffffffffffffffffffffffffffffffffffffff1681526020019250505060405180910390a2505050565b8473ffffffffffffffffffffffffffffffffffffffff167f8b2c49860b948027ed34595a51903cf06460b943a962d8bcbe16247749f2314f8585858560405180806020018560ff1660ff16815260200180602001848152602001838103835287818151815260200191508051906020019080838360005b8381101561097657808201518184015260208101905061095b565b50505050905090810190601f1680156109a35780820380516001836020036101000a031916815260200191505b50838103825285818151815260200191508051906020019080838360005b838110156109dc5780820151818401526020810190506109c1565b50505050905090810190601f168015610a095780820380516001836020036101000a031916815260200191505b50965050505050505060405180910390a250505050505600a165627a7a72305820261719b356e4fc5d23e75bd8d4489274d83d6f4af61237d680e49831f3dfa22c0029",
  "source": "pragma solidity ^0.4.21;\n\ncontract Oracle {\n  // Callback functions\n  event CallbackHasKyc(address indexed createOrderAddress, address investor);\n  event CallbackOrderCreated(address indexed createOrderAddress, uint indexed index, address investor, address[] brokers, uint executionDate);\n  event CallbackOrderStateUpdated(address indexed createOrderAddress, uint indexed index, uint state);\n  event CallbackOrderSetPrice(address indexed createOrderAddress, uint indexed index, address broker, bytes32 price);\n  event CallbackOrderInvestorConfirm(address indexed createOrderAddress, uint index, address broker);\n  event CallbackOrderBrokerConfirm(address indexed createOrderAddress, uint index, address broker);\n  event CallbackTokenCreated(address indexed tokenAddress, string name, uint8 decimals, string symbol, uint cutoffTime);\n  event CallbackTokenHoldingsRemoved(address indexed tokenAddress);\n  event CallbackTokenHoldingAdded(address indexed tokenAddress, bytes32 ticker, uint16 percent);\n\n  constructor() public { }\n\n  function emitTokenHoldingsRemoved(address tokenAddress) public {\n    emit CallbackTokenHoldingsRemoved(tokenAddress);\n  }\n  function emitTokenHoldingAdded(address tokenAddress, bytes32 ticker, uint16 percent) public {\n    emit CallbackTokenHoldingAdded(tokenAddress, ticker, percent);\n  }\n  function emitHasKyc(address createOrderAddress, address investor) public {\n    emit CallbackHasKyc(createOrderAddress, investor);\n  }\n  function emitOrderCreated(address createOrderAddress, uint index, address investor, address[] brokers, uint executionDate) public {\n    emit CallbackOrderCreated(createOrderAddress, index, investor, brokers, executionDate);\n  }\n  function emitOrderStateUpdated(address createOrderAddress, uint index, uint state) public {\n    emit CallbackOrderStateUpdated(createOrderAddress, index, state);\n  }\n  function emitTokenCreated(address tokenAddress, string name, uint8 decimals, string symbol, uint cutoffTime) public {\n    emit CallbackTokenCreated(tokenAddress, name, decimals, symbol, cutoffTime);\n  }\n  function emitOrderSetPrice(address createOrderAddress, uint index, address broker, bytes32 price) public {\n    emit CallbackOrderSetPrice(createOrderAddress, index, broker, price);\n  }\n  function emitOrderInvestorConfirm(address createOrderAddress, uint index, address broker) public {\n    emit CallbackOrderInvestorConfirm(createOrderAddress, index, broker);\n  }\n  function emitOrderBrokerConfirm(address createOrderAddress, uint index, address broker) public {\n    emit CallbackOrderBrokerConfirm(createOrderAddress, index, broker);\n  }\n}",
  "sourcePath": "/Users/giblets/code/myprojects/ett/dapp/contracts/Oracle.sol",
  "compiler": {
    "name": "solc",
    "version": "0.4.24+commit.e67f0147.Emscripten.clang"
  },
  "schemaVersion": "2.0.1",
  "updatedAt": "2018-09-09T16:42:12.661Z"
}