{
  "contractName": "TokenFactory",
  "abi": [
    {
      "constant": true,
      "inputs": [
        {
          "name": "",
          "type": "bytes32"
        }
      ],
      "name": "symbolToAddresses",
      "outputs": [
        {
          "name": "",
          "type": "address"
        }
      ],
      "payable": false,
      "stateMutability": "view",
      "type": "function"
    },
    {
      "constant": true,
      "inputs": [
        {
          "name": "",
          "type": "address"
        },
        {
          "name": "",
          "type": "uint256"
        }
      ],
      "name": "created",
      "outputs": [
        {
          "name": "",
          "type": "address"
        }
      ],
      "payable": false,
      "stateMutability": "view",
      "type": "function"
    },
    {
      "constant": true,
      "inputs": [
        {
          "name": "",
          "type": "address"
        }
      ],
      "name": "isETT",
      "outputs": [
        {
          "name": "",
          "type": "bool"
        }
      ],
      "payable": false,
      "stateMutability": "view",
      "type": "function"
    },
    {
      "constant": true,
      "inputs": [],
      "name": "numTokens",
      "outputs": [
        {
          "name": "",
          "type": "uint256"
        }
      ],
      "payable": false,
      "stateMutability": "view",
      "type": "function"
    },
    {
      "constant": true,
      "inputs": [],
      "name": "ETTByteCode",
      "outputs": [
        {
          "name": "",
          "type": "bytes"
        }
      ],
      "payable": false,
      "stateMutability": "view",
      "type": "function"
    },
    {
      "constant": true,
      "inputs": [
        {
          "name": "",
          "type": "uint256"
        }
      ],
      "name": "tokenAddresses",
      "outputs": [
        {
          "name": "",
          "type": "address"
        }
      ],
      "payable": false,
      "stateMutability": "view",
      "type": "function"
    },
    {
      "inputs": [
        {
          "name": "_oracle",
          "type": "address"
        }
      ],
      "payable": false,
      "stateMutability": "nonpayable",
      "type": "constructor"
    },
    {
      "constant": false,
      "inputs": [],
      "name": "setETTByteCode",
      "outputs": [],
      "payable": false,
      "stateMutability": "nonpayable",
      "type": "function"
    },
    {
      "constant": true,
      "inputs": [
        {
          "name": "_tokenContract",
          "type": "address"
        }
      ],
      "name": "verifyETT",
      "outputs": [
        {
          "name": "",
          "type": "bool"
        }
      ],
      "payable": false,
      "stateMutability": "view",
      "type": "function"
    },
    {
      "constant": false,
      "inputs": [
        {
          "name": "_initialAmount",
          "type": "uint256"
        },
        {
          "name": "_name",
          "type": "string"
        },
        {
          "name": "_decimals",
          "type": "uint8"
        },
        {
          "name": "_symbol",
          "type": "string"
        },
        {
          "name": "_cutoffTime",
          "type": "uint256"
        }
      ],
      "name": "createETT",
      "outputs": [
        {
          "name": "",
          "type": "address"
        }
      ],
      "payable": false,
      "stateMutability": "nonpayable",
      "type": "function"
    },
    {
      "constant": true,
      "inputs": [
        {
          "name": "_symbol",
          "type": "string"
        }
      ],
      "name": "tokenFromSymbol",
      "outputs": [
        {
          "name": "",
          "type": "address"
        }
      ],
      "payable": false,
      "stateMutability": "view",
      "type": "function"
    }
  ],
  "bytecode": "0x608060405234801561001057600080fd5b506040516020806128288339810180604052810190808051906020019092919050505080600660006101000a81548173ffffffffffffffffffffffffffffffffffffffff021916908373ffffffffffffffffffffffffffffffffffffffff16021790555060006003819055505061279c8061008c6000396000f3006080604052600436106100a4576000357c0100000000000000000000000000000000000000000000000000000000900463ffffffff1680635b6153bf146100a95780635f8dead31461011a57806360b52d9b146101a757806381b0a4021461025057806387cc6fa1146102675780638910d604146102c25780638e499bcf1461031d578063c680db3414610348578063e5df8b84146103d8578063e99960cd14610445575b600080fd5b3480156100b557600080fd5b506100d86004803603810190808035600019169060200190929190505050610555565b604051808273ffffffffffffffffffffffffffffffffffffffff1673ffffffffffffffffffffffffffffffffffffffff16815260200191505060405180910390f35b34801561012657600080fd5b50610165600480360381019080803573ffffffffffffffffffffffffffffffffffffffff16906020019092919080359060200190929190505050610588565b604051808273ffffffffffffffffffffffffffffffffffffffff1673ffffffffffffffffffffffffffffffffffffffff16815260200191505060405180910390f35b3480156101b357600080fd5b5061020e600480360381019080803590602001908201803590602001908080601f01602080910402602001604051908101604052809392919081815260200183838082843782019150505050505091929192905050506105d5565b604051808273ffffffffffffffffffffffffffffffffffffffff1673ffffffffffffffffffffffffffffffffffffffff16815260200191505060405180910390f35b34801561025c57600080fd5b50610265610764565b005b34801561027357600080fd5b506102a8600480360381019080803573ffffffffffffffffffffffffffffffffffffffff169060200190929190505050610844565b604051808215151515815260200191505060405180910390f35b3480156102ce57600080fd5b50610303600480360381019080803573ffffffffffffffffffffffffffffffffffffffff169060200190929190505050610864565b604051808215151515815260200191505060405180910390f35b34801561032957600080fd5b506103326109d7565b6040518082815260200191505060405180910390f35b34801561035457600080fd5b5061035d6109dd565b6040518080602001828103825283818151815260200191508051906020019080838360005b8381101561039d578082015181840152602081019050610382565b50505050905090810190601f1680156103ca5780820380516001836020036101000a031916815260200191505b509250505060405180910390f35b3480156103e457600080fd5b5061040360048036038101908080359060200190929190505050610a7b565b604051808273ffffffffffffffffffffffffffffffffffffffff1673ffffffffffffffffffffffffffffffffffffffff16815260200191505060405180910390f35b34801561045157600080fd5b5061051360048036038101908080359060200190929190803590602001908201803590602001908080601f0160208091040260200160405190810160405280939291908181526020018383808284378201915050505050509192919290803560ff169060200190929190803590602001908201803590602001908080601f016020809104026020016040519081016040528093929190818152602001838380828437820191505050505050919291929080359060200190929190505050610aae565b604051808273ffffffffffffffffffffffffffffffffffffffff1673ffffffffffffffffffffffffffffffffffffffff16815260200191505060405180910390f35b60056020528060005260406000206000915054906101000a900473ffffffffffffffffffffffffffffffffffffffff1681565b6000602052816000526040600020818154811015156105a357fe5b906000526020600020016000915091509054906101000a900473ffffffffffffffffffffffffffffffffffffffff1681565b600080826040516020018082805190602001908083835b60208310151561061157805182526020820191506020810190506020830392506105ec565b6001836020036101000a0380198251168184511680821785525050505050509050019150506040516020818303038152906040526040518082805190602001908083835b60208310151561067a5780518252602082019150602081019050602083039250610655565b6001836020036101000a03801982511681845116808217855250505050505090500191505060405180910390209050600073ffffffffffffffffffffffffffffffffffffffff1660056000836000191660001916815260200190815260200160002060009054906101000a900473ffffffffffffffffffffffffffffffffffffffff1673ffffffffffffffffffffffffffffffffffffffff161415151561072057600080fd5b60056000826000191660001916815260200190815260200160002060009054906101000a900473ffffffffffffffffffffffffffffffffffffffff16915050919050565b6000612710600361fd2061077661113b565b80848152602001806020018460ff168152602001806020018481526020018381038352600c8152602001807f56657269667920546f6b656e0000000000000000000000000000000000000000815250602001838103825260038152602001807f565458000000000000000000000000000000000000000000000000000000000081525060200195505050505050604051809103906000f08015801561081f573d6000803e3d6000fd5b50905061082b81611110565b6002908051906020019061084092919061114b565b5050565b60016020528060005260406000206000915054906101000a900460ff1681565b60006060600061087384611110565b91506002805460018160011615610100020316600290049050825114151561089e57600092506109d0565b600090505b81518110156109cb5760028181546001816001161561010002031660029004811015156108cc57fe5b8154600116156108eb5790600052602060002090602091828204019190065b9054901a7f0100000000000000000000000000000000000000000000000000000000000000027effffffffffffffffffffffffffffffffffffffffffffffffffffffffffffff1916828281518110151561094157fe5b9060200101517f010000000000000000000000000000000000000000000000000000000000000090047f0100000000000000000000000000000000000000000000000000000000000000027effffffffffffffffffffffffffffffffffffffffffffffffffffffffffffff19161415156109be57600092506109d0565b80806001019150506108a3565b600192505b5050919050565b60035481565b60028054600181600116156101000203166002900480601f016020809104026020016040519081016040528092919081815260200182805460018160011615610100020316600290048015610a735780601f10610a4857610100808354040283529160200191610a73565b820191906000526020600020905b815481529060010190602001808311610a5657829003601f168201915b505050505081565b60046020528060005260406000206000915054906101000a900473ffffffffffffffffffffffffffffffffffffffff1681565b6000806000846040516020018082805190602001908083835b602083101515610aec5780518252602082019150602081019050602083039250610ac7565b6001836020036101000a0380198251168184511680821785525050505050509050019150506040516020818303038152906040526040518082805190602001908083835b602083101515610b555780518252602082019150602081019050602083039250610b30565b6001836020036101000a038019825116818451168082178552505050505050905001915050604051809103902091508787878787610b9161113b565b80868152602001806020018560ff1660ff16815260200180602001848152602001838103835287818151815260200191508051906020019080838360005b83811015610bea578082015181840152602081019050610bcf565b50505050905090810190601f168015610c175780820380516001836020036101000a031916815260200191505b50838103825285818151815260200191508051906020019080838360005b83811015610c50578082015181840152602081019050610c35565b50505050905090810190601f168015610c7d5780820380516001836020036101000a031916815260200191505b50975050505050505050604051809103906000f080158015610ca3573d6000803e3d6000fd5b5090506000803373ffffffffffffffffffffffffffffffffffffffff1673ffffffffffffffffffffffffffffffffffffffff1681526020019081526020016000208190806001815401808255809150509060018203906000526020600020016000909192909190916101000a81548173ffffffffffffffffffffffffffffffffffffffff021916908373ffffffffffffffffffffffffffffffffffffffff1602179055505060018060008373ffffffffffffffffffffffffffffffffffffffff1673ffffffffffffffffffffffffffffffffffffffff16815260200190815260200160002060006101000a81548160ff0219169083151502179055508073ffffffffffffffffffffffffffffffffffffffff1663a9059cbb338a6040518363ffffffff167c0100000000000000000000000000000000000000000000000000000000028152600401808373ffffffffffffffffffffffffffffffffffffffff1673ffffffffffffffffffffffffffffffffffffffff16815260200182815260200192505050602060405180830381600087803b158015610e4257600080fd5b505af1158015610e56573d6000803e3d6000fd5b505050506040513d6020811015610e6c57600080fd5b8101908080519060200190929190505050508060046000600354815260200190815260200160002060006101000a81548173ffffffffffffffffffffffffffffffffffffffff021916908373ffffffffffffffffffffffffffffffffffffffff16021790555060016003600082825401925050819055508060056000846000191660001916815260200190815260200160002060006101000a81548173ffffffffffffffffffffffffffffffffffffffff021916908373ffffffffffffffffffffffffffffffffffffffff160217905550600660009054906101000a900473ffffffffffffffffffffffffffffffffffffffff1673ffffffffffffffffffffffffffffffffffffffff1663b26ced1982898989896040518663ffffffff167c0100000000000000000000000000000000000000000000000000000000028152600401808673ffffffffffffffffffffffffffffffffffffffff1673ffffffffffffffffffffffffffffffffffffffff168152602001806020018560ff1660ff16815260200180602001848152602001838103835287818151815260200191508051906020019080838360005b83811015611033578082015181840152602081019050611018565b50505050905090810190601f1680156110605780820380516001836020036101000a031916815260200191505b50838103825285818151815260200191508051906020019080838360005b8381101561109957808201518184015260208101905061107e565b50505050905090810190601f1680156110c65780820380516001836020036101000a031916815260200191505b50975050505050505050600060405180830381600087803b1580156110ea57600080fd5b505af11580156110fe573d6000803e3d6000fd5b50505050809250505095945050505050565b6060813b6040519150601f19601f602083010116820160405280825280600060208401853c50919050565b604051611580806111f183390190565b828054600181600116156101000203166002900490600052602060002090601f016020900481019282601f1061118c57805160ff19168380011785556111ba565b828001600101855582156111ba579182015b828111156111b957825182559160200191906001019061119e565b5b5090506111c791906111cb565b5090565b6111ed91905b808211156111e95760008160009055506001016111d1565b5090565b90560060806040523480156200001157600080fd5b50604051620015803803806200158083398101806040528101908080519060200190929190805182019291906020018051906020019092919080518201929190602001805190602001909291905050508360039080519060200190620000799291906200010a565b508160049080519060200190620000929291906200010a565b5082600560006101000a81548160ff021916908360ff1602179055508060068190555084600281905550846000803373ffffffffffffffffffffffffffffffffffffffff1673ffffffffffffffffffffffffffffffffffffffff168152602001908152602001600020819055505050505050620001b9565b828054600181600116156101000203166002900490600052602060002090601f016020900481019282601f106200014d57805160ff19168380011785556200017e565b828001600101855582156200017e579182015b828111156200017d57825182559160200191906001019062000160565b5b5090506200018d919062000191565b5090565b620001b691905b80821115620001b257600081600090555060010162000198565b5090565b90565b6113b780620001c96000396000f3006080604052600436106100c5576000357c0100000000000000000000000000000000000000000000000000000000900463ffffffff16806306fdde03146100ca578063095ea7b31461015a57806318160ddd146101bf57806323b872dd146101ea578063313ce5671461026f578063346bdcfb146102a057806362107e8d146102cd57806366188463146102f857806370a082311461035d57806395d89b41146103b4578063a9059cbb14610444578063d73dd623146104a9578063dd62ed3e1461050e575b600080fd5b3480156100d657600080fd5b506100df610585565b6040518080602001828103825283818151815260200191508051906020019080838360005b8381101561011f578082015181840152602081019050610104565b50505050905090810190601f16801561014c5780820380516001836020036101000a031916815260200191505b509250505060405180910390f35b34801561016657600080fd5b506101a5600480360381019080803573ffffffffffffffffffffffffffffffffffffffff16906020019092919080359060200190929190505050610623565b604051808215151515815260200191505060405180910390f35b3480156101cb57600080fd5b506101d4610715565b6040518082815260200191505060405180910390f35b3480156101f657600080fd5b50610255600480360381019080803573ffffffffffffffffffffffffffffffffffffffff169060200190929190803573ffffffffffffffffffffffffffffffffffffffff1690602001909291908035906020019092919050505061071f565b604051808215151515815260200191505060405180910390f35b34801561027b57600080fd5b50610284610ada565b604051808260ff1660ff16815260200191505060405180910390f35b3480156102ac57600080fd5b506102cb60048036038101908080359060200190929190505050610aed565b005b3480156102d957600080fd5b506102e2610b35565b6040518082815260200191505060405180910390f35b34801561030457600080fd5b50610343600480360381019080803573ffffffffffffffffffffffffffffffffffffffff16906020019092919080359060200190929190505050610b3b565b604051808215151515815260200191505060405180910390f35b34801561036957600080fd5b5061039e600480360381019080803573ffffffffffffffffffffffffffffffffffffffff169060200190929190505050610dcd565b6040518082815260200191505060405180910390f35b3480156103c057600080fd5b506103c9610e15565b6040518080602001828103825283818151815260200191508051906020019080838360005b838110156104095780820151818401526020810190506103ee565b50505050905090810190601f1680156104365780820380516001836020036101000a031916815260200191505b509250505060405180910390f35b34801561045057600080fd5b5061048f600480360381019080803573ffffffffffffffffffffffffffffffffffffffff16906020019092919080359060200190929190505050610eb3565b604051808215151515815260200191505060405180910390f35b3480156104b557600080fd5b506104f4600480360381019080803573ffffffffffffffffffffffffffffffffffffffff169060200190929190803590602001909291905050506110d3565b604051808215151515815260200191505060405180910390f35b34801561051a57600080fd5b5061056f600480360381019080803573ffffffffffffffffffffffffffffffffffffffff169060200190929190803573ffffffffffffffffffffffffffffffffffffffff1690602001909291905050506112cf565b6040518082815260200191505060405180910390f35b60038054600181600116156101000203166002900480601f01602080910402602001604051908101604052809291908181526020018280546001816001161561010002031660029004801561061b5780601f106105f05761010080835404028352916020019161061b565b820191906000526020600020905b8154815290600101906020018083116105fe57829003601f168201915b505050505081565b600081600160003373ffffffffffffffffffffffffffffffffffffffff1673ffffffffffffffffffffffffffffffffffffffff16815260200190815260200160002060008573ffffffffffffffffffffffffffffffffffffffff1673ffffffffffffffffffffffffffffffffffffffff168152602001908152602001600020819055508273ffffffffffffffffffffffffffffffffffffffff163373ffffffffffffffffffffffffffffffffffffffff167f8c5be1e5ebec7d5bd14f71427d1e84f3dd0314c0f7b2291e5b200ac8c7c3b925846040518082815260200191505060405180910390a36001905092915050565b6000600254905090565b60008060008573ffffffffffffffffffffffffffffffffffffffff1673ffffffffffffffffffffffffffffffffffffffff16815260200190815260200160002054821115151561076e57600080fd5b600160008573ffffffffffffffffffffffffffffffffffffffff1673ffffffffffffffffffffffffffffffffffffffff16815260200190815260200160002060003373ffffffffffffffffffffffffffffffffffffffff1673ffffffffffffffffffffffffffffffffffffffff1681526020019081526020016000205482111515156107f957600080fd5b600073ffffffffffffffffffffffffffffffffffffffff168373ffffffffffffffffffffffffffffffffffffffff161415151561083557600080fd5b610886826000808773ffffffffffffffffffffffffffffffffffffffff1673ffffffffffffffffffffffffffffffffffffffff1681526020019081526020016000205461135690919063ffffffff16565b6000808673ffffffffffffffffffffffffffffffffffffffff1673ffffffffffffffffffffffffffffffffffffffff16815260200190815260200160002081905550610919826000808673ffffffffffffffffffffffffffffffffffffffff1673ffffffffffffffffffffffffffffffffffffffff1681526020019081526020016000205461136f90919063ffffffff16565b6000808573ffffffffffffffffffffffffffffffffffffffff1673ffffffffffffffffffffffffffffffffffffffff168152602001908152602001600020819055506109ea82600160008773ffffffffffffffffffffffffffffffffffffffff1673ffffffffffffffffffffffffffffffffffffffff16815260200190815260200160002060003373ffffffffffffffffffffffffffffffffffffffff1673ffffffffffffffffffffffffffffffffffffffff1681526020019081526020016000205461135690919063ffffffff16565b600160008673ffffffffffffffffffffffffffffffffffffffff1673ffffffffffffffffffffffffffffffffffffffff16815260200190815260200160002060003373ffffffffffffffffffffffffffffffffffffffff1673ffffffffffffffffffffffffffffffffffffffff168152602001908152602001600020819055508273ffffffffffffffffffffffffffffffffffffffff168473ffffffffffffffffffffffffffffffffffffffff167fddf252ad1be2c89b69c2b068fc378daa952ba7f163c4a11628f55a4df523b3ef846040518082815260200191505060405180910390a3600190509392505050565b600560009054906101000a900460ff1681565b6000811315610b1657610b0b8160025461136f90919063ffffffff16565b600281905550610b32565b610b2b8160025461135690919063ffffffff16565b6002819055505b50565b60065481565b600080600160003373ffffffffffffffffffffffffffffffffffffffff1673ffffffffffffffffffffffffffffffffffffffff16815260200190815260200160002060008573ffffffffffffffffffffffffffffffffffffffff1673ffffffffffffffffffffffffffffffffffffffff1681526020019081526020016000205490508083101515610c4d576000600160003373ffffffffffffffffffffffffffffffffffffffff1673ffffffffffffffffffffffffffffffffffffffff16815260200190815260200160002060008673ffffffffffffffffffffffffffffffffffffffff1673ffffffffffffffffffffffffffffffffffffffff16815260200190815260200160002081905550610ce1565b610c60838261135690919063ffffffff16565b600160003373ffffffffffffffffffffffffffffffffffffffff1673ffffffffffffffffffffffffffffffffffffffff16815260200190815260200160002060008673ffffffffffffffffffffffffffffffffffffffff1673ffffffffffffffffffffffffffffffffffffffff168152602001908152602001600020819055505b8373ffffffffffffffffffffffffffffffffffffffff163373ffffffffffffffffffffffffffffffffffffffff167f8c5be1e5ebec7d5bd14f71427d1e84f3dd0314c0f7b2291e5b200ac8c7c3b925600160003373ffffffffffffffffffffffffffffffffffffffff1673ffffffffffffffffffffffffffffffffffffffff16815260200190815260200160002060008873ffffffffffffffffffffffffffffffffffffffff1673ffffffffffffffffffffffffffffffffffffffff168152602001908152602001600020546040518082815260200191505060405180910390a3600191505092915050565b60008060008373ffffffffffffffffffffffffffffffffffffffff1673ffffffffffffffffffffffffffffffffffffffff168152602001908152602001600020549050919050565b60048054600181600116156101000203166002900480601f016020809104026020016040519081016040528092919081815260200182805460018160011615610100020316600290048015610eab5780601f10610e8057610100808354040283529160200191610eab565b820191906000526020600020905b815481529060010190602001808311610e8e57829003601f168201915b505050505081565b60008060003373ffffffffffffffffffffffffffffffffffffffff1673ffffffffffffffffffffffffffffffffffffffff168152602001908152602001600020548211151515610f0257600080fd5b600073ffffffffffffffffffffffffffffffffffffffff168373ffffffffffffffffffffffffffffffffffffffff1614151515610f3e57600080fd5b610f8f826000803373ffffffffffffffffffffffffffffffffffffffff1673ffffffffffffffffffffffffffffffffffffffff1681526020019081526020016000205461135690919063ffffffff16565b6000803373ffffffffffffffffffffffffffffffffffffffff1673ffffffffffffffffffffffffffffffffffffffff16815260200190815260200160002081905550611022826000808673ffffffffffffffffffffffffffffffffffffffff1673ffffffffffffffffffffffffffffffffffffffff1681526020019081526020016000205461136f90919063ffffffff16565b6000808573ffffffffffffffffffffffffffffffffffffffff1673ffffffffffffffffffffffffffffffffffffffff168152602001908152602001600020819055508273ffffffffffffffffffffffffffffffffffffffff163373ffffffffffffffffffffffffffffffffffffffff167fddf252ad1be2c89b69c2b068fc378daa952ba7f163c4a11628f55a4df523b3ef846040518082815260200191505060405180910390a36001905092915050565b600061116482600160003373ffffffffffffffffffffffffffffffffffffffff1673ffffffffffffffffffffffffffffffffffffffff16815260200190815260200160002060008673ffffffffffffffffffffffffffffffffffffffff1673ffffffffffffffffffffffffffffffffffffffff1681526020019081526020016000205461136f90919063ffffffff16565b600160003373ffffffffffffffffffffffffffffffffffffffff1673ffffffffffffffffffffffffffffffffffffffff16815260200190815260200160002060008573ffffffffffffffffffffffffffffffffffffffff1673ffffffffffffffffffffffffffffffffffffffff168152602001908152602001600020819055508273ffffffffffffffffffffffffffffffffffffffff163373ffffffffffffffffffffffffffffffffffffffff167f8c5be1e5ebec7d5bd14f71427d1e84f3dd0314c0f7b2291e5b200ac8c7c3b925600160003373ffffffffffffffffffffffffffffffffffffffff1673ffffffffffffffffffffffffffffffffffffffff16815260200190815260200160002060008773ffffffffffffffffffffffffffffffffffffffff1673ffffffffffffffffffffffffffffffffffffffff168152602001908152602001600020546040518082815260200191505060405180910390a36001905092915050565b6000600160008473ffffffffffffffffffffffffffffffffffffffff1673ffffffffffffffffffffffffffffffffffffffff16815260200190815260200160002060008373ffffffffffffffffffffffffffffffffffffffff1673ffffffffffffffffffffffffffffffffffffffff16815260200190815260200160002054905092915050565b600082821115151561136457fe5b818303905092915050565b6000818301905082811015151561138257fe5b809050929150505600a165627a7a7230582062b277c7e51c72157094e5f334e881f689a00285a003bc073dd371d1d5f8d7b60029a165627a7a723058206ef64770eae55b8c8962ca0af8c7c29e75f6b60bc3b55c02045da5a26106470c0029",
  "source": "pragma solidity ^0.4.21;\n\nimport \"./ETT.sol\";\nimport \"./Oracle.sol\";\n\ncontract TokenFactory {\n    mapping(address => address[]) public created;\n    mapping(address => bool) public isETT; //verify without having to do a bytecode check.\n    bytes public ETTByteCode; // solhint-disable-line var-name-mixedcase\n    uint public numTokens;\n    mapping(uint => address) public tokenAddresses;\n    mapping(bytes32 => address) public symbolToAddresses;\n    address private oracle;\n    \n    constructor(address _oracle) public {\n        //upon creation of the factory, deploy a ETT (parameters are meaningless) and store the bytecode provably.\n        oracle = _oracle;\n        numTokens = 0;\n    }\n    function setETTByteCode() public {\n        address verifiedToken = new ETT(10000, \"Verify Token\", 3, \"VTX\", 64800);\n        ETTByteCode = codeAt(verifiedToken);\n    }\n    //verifies if a contract that has been deployed is a Human Standard Token.\n    //NOTE: This is a very expensive function, and should only be used in an eth_call. ~800k gas\n    function verifyETT(address _tokenContract) public view returns (bool) {\n        bytes memory fetchedTokenByteCode = codeAt(_tokenContract);\n        if (fetchedTokenByteCode.length != ETTByteCode.length) {\n            return false; //clear mismatch\n        }\n        //starting iterating through it if lengths match\n        for (uint i = 0; i < fetchedTokenByteCode.length; i++) {\n            if (fetchedTokenByteCode[i] != ETTByteCode[i]) {\n                return false;\n            }\n        }\n        return true;\n    }\n    function createETT(uint256 _initialAmount, string _name, uint8 _decimals, string _symbol, uint _cutoffTime) public returns (address) {\n\n        bytes32 symbolHash = keccak256(abi.encodePacked(_symbol));\n        // require(symbolToAddresses[symbolHash] == address(0));\n        ETT newToken = (new ETT(_initialAmount, _name, _decimals, _symbol, _cutoffTime));\n        created[msg.sender].push(address(newToken));\n        isETT[address(newToken)] = true;\n        //the factory will own the created tokens. You must transfer them.\n        newToken.transfer(msg.sender, _initialAmount);\n\n        tokenAddresses[numTokens] = address(newToken);\n        numTokens += 1;\n\n        symbolToAddresses[symbolHash] = address(newToken);\n\n        Oracle(oracle).emitTokenCreated(address(newToken), _name, _decimals, _symbol, _cutoffTime);\n        return address(newToken);\n    }\n    //for now, keeping this internal. Ideally there should also be a live version of this that\n    // any contract can use, lib-style.\n    //retrieves the bytecode at a specific address.\n    function codeAt(address _addr) internal view returns (bytes outputCode) {\n        assembly { // solhint-disable-line no-inline-assembly\n            // retrieve the size of the code, this needs assembly\n            let size := extcodesize(_addr)\n            // allocate output byte array - this could also be done without assembly\n            // by using outputCode = new bytes(size)\n            outputCode := mload(0x40)\n            // new \"memory end\" including padding\n            mstore(0x40, add(outputCode, and(add(add(size, 0x20), 0x1f), not(0x1f))))\n            // store length in memory\n            mstore(outputCode, size)\n            // actually retrieve the code, this needs assembly\n            extcodecopy(_addr, add(outputCode, 0x20), 0, size)\n        }\n    }\n    function tokenFromSymbol(string _symbol) public view returns (address){\n        bytes32 symbolHash = keccak256(abi.encodePacked(_symbol));\n        require(symbolToAddresses[symbolHash] != address(0));\n        return symbolToAddresses[symbolHash];\n    }\n}",
  "sourcePath": "/Users/giblets/code/myprojects/ett/dapp/contracts/TokenFactory.sol",
  "compiler": {
    "name": "solc",
    "version": "0.4.24+commit.e67f0147.Emscripten.clang"
  },
  "schemaVersion": "2.0.1",
  "updatedAt": "2018-09-09T16:42:12.656Z"
}