{
  "contractName": "TradeKernel",
  "abi": [
    {
      "constant": true,
      "inputs": [
        {
          "name": "",
          "type": "bytes32"
        }
      ],
      "name": "cancelled",
      "outputs": [
        {
          "name": "",
          "type": "address"
        }
      ],
      "payable": false,
      "stateMutability": "view",
      "type": "function"
    },
    {
      "constant": true,
      "inputs": [
        {
          "name": "",
          "type": "bytes32"
        }
      ],
      "name": "secretKeys",
      "outputs": [
        {
          "name": "",
          "type": "bytes32"
        }
      ],
      "payable": false,
      "stateMutability": "view",
      "type": "function"
    },
    {
      "constant": true,
      "inputs": [
        {
          "name": "",
          "type": "bytes32"
        }
      ],
      "name": "verified",
      "outputs": [
        {
          "name": "",
          "type": "uint256"
        }
      ],
      "payable": false,
      "stateMutability": "view",
      "type": "function"
    },
    {
      "constant": true,
      "inputs": [
        {
          "name": "",
          "type": "bytes32"
        }
      ],
      "name": "confirmed",
      "outputs": [
        {
          "name": "",
          "type": "bytes32"
        }
      ],
      "payable": false,
      "stateMutability": "view",
      "type": "function"
    },
    {
      "inputs": [
        {
          "name": "_permissions",
          "type": "address"
        }
      ],
      "payable": false,
      "stateMutability": "nonpayable",
      "type": "constructor"
    },
    {
      "anonymous": false,
      "inputs": [
        {
          "indexed": true,
          "name": "investor",
          "type": "address"
        },
        {
          "indexed": true,
          "name": "broker",
          "type": "address"
        },
        {
          "indexed": false,
          "name": "token",
          "type": "address"
        },
        {
          "indexed": false,
          "name": "tradeHash",
          "type": "bytes32"
        }
      ],
      "name": "LogConfirmed",
      "type": "event"
    },
    {
      "anonymous": false,
      "inputs": [
        {
          "indexed": true,
          "name": "investor",
          "type": "address"
        },
        {
          "indexed": true,
          "name": "broker",
          "type": "address"
        },
        {
          "indexed": false,
          "name": "token",
          "type": "address"
        },
        {
          "indexed": true,
          "name": "canceller",
          "type": "address"
        },
        {
          "indexed": false,
          "name": "tradeHash",
          "type": "bytes32"
        }
      ],
      "name": "LogCancel",
      "type": "event"
    },
    {
      "anonymous": false,
      "inputs": [
        {
          "indexed": true,
          "name": "custodian",
          "type": "address"
        },
        {
          "indexed": false,
          "name": "tradeHash",
          "type": "bytes32"
        }
      ],
      "name": "LogVerified",
      "type": "event"
    },
    {
      "anonymous": false,
      "inputs": [
        {
          "indexed": true,
          "name": "errorId",
          "type": "uint8"
        },
        {
          "indexed": true,
          "name": "tradeHash",
          "type": "bytes32"
        }
      ],
      "name": "LogError",
      "type": "event"
    },
    {
      "constant": false,
      "inputs": [
        {
          "name": "tradeAddresses",
          "type": "address[3]"
        },
        {
          "name": "tradeBytes",
          "type": "bytes32[2]"
        },
        {
          "name": "tradeValues",
          "type": "uint256[3]"
        },
        {
          "name": "v",
          "type": "uint8"
        },
        {
          "name": "r",
          "type": "bytes32"
        },
        {
          "name": "s",
          "type": "bytes32"
        }
      ],
      "name": "confirmTrade",
      "outputs": [],
      "payable": false,
      "stateMutability": "nonpayable",
      "type": "function"
    },
    {
      "constant": false,
      "inputs": [
        {
          "name": "tradeAddresses",
          "type": "address[3]"
        },
        {
          "name": "tradeBytes",
          "type": "bytes32[2]"
        },
        {
          "name": "tradeValues",
          "type": "uint256[3]"
        }
      ],
      "name": "cancelTrade",
      "outputs": [],
      "payable": false,
      "stateMutability": "nonpayable",
      "type": "function"
    },
    {
      "constant": false,
      "inputs": [
        {
          "name": "tradeHash",
          "type": "bytes32"
        },
        {
          "name": "amount",
          "type": "uint256"
        }
      ],
      "name": "verifyTrade",
      "outputs": [],
      "payable": false,
      "stateMutability": "nonpayable",
      "type": "function"
    },
    {
      "constant": false,
      "inputs": [
        {
          "name": "broker",
          "type": "address"
        },
        {
          "name": "tradeHash",
          "type": "bytes32"
        },
        {
          "name": "tradeHashes",
          "type": "bytes32[]"
        },
        {
          "name": "amounts",
          "type": "uint256[]"
        },
        {
          "name": "v",
          "type": "uint8"
        },
        {
          "name": "r",
          "type": "bytes32"
        },
        {
          "name": "s",
          "type": "bytes32"
        }
      ],
      "name": "verifyTrade",
      "outputs": [],
      "payable": false,
      "stateMutability": "nonpayable",
      "type": "function"
    },
    {
      "constant": true,
      "inputs": [
        {
          "name": "tradeAddresses",
          "type": "address[3]"
        },
        {
          "name": "tradeBytes",
          "type": "bytes32[2]"
        },
        {
          "name": "tradeValues",
          "type": "uint256[3]"
        }
      ],
      "name": "getTradeHash",
      "outputs": [
        {
          "name": "",
          "type": "bytes32"
        }
      ],
      "payable": false,
      "stateMutability": "view",
      "type": "function"
    },
    {
      "constant": true,
      "inputs": [
        {
          "name": "signer",
          "type": "address"
        },
        {
          "name": "hash",
          "type": "bytes32"
        },
        {
          "name": "v",
          "type": "uint8"
        },
        {
          "name": "r",
          "type": "bytes32"
        },
        {
          "name": "s",
          "type": "bytes32"
        }
      ],
      "name": "isValidSignature",
      "outputs": [
        {
          "name": "",
          "type": "bool"
        }
      ],
      "payable": false,
      "stateMutability": "pure",
      "type": "function"
    }
  ],
  "bytecode": "0x608060405234801561001057600080fd5b506040516020806115b88339810180604052810190808051906020019092919050505080600460006101000a81548173ffffffffffffffffffffffffffffffffffffffff021916908373ffffffffffffffffffffffffffffffffffffffff16021790555050611534806100846000396000f3006080604052600436106100a4576000357c0100000000000000000000000000000000000000000000000000000000900463ffffffff1680631cb1c5c6146100a95780632ac12622146101595780634843eaf7146101ca5780638163681e146102175780638a93fe17146102a9578063bcc803ba146102e4578063c59e43e5146103e4578063d0291e7b14610429578063d4f92d3914610502578063dbfe791b146105ce575b600080fd5b3480156100b557600080fd5b5061015760048036038101908080606001906003806020026040519081016040528092919082600360200280828437820191505050505091929192908060400190600280602002604051908101604052809291908260026020028082843782019150505050509192919290806060019060038060200260405190810160405280929190826003602002808284378201915050505050919291929050505061061b565b005b34801561016557600080fd5b5061018860048036038101908080356000191690602001909291905050506108e1565b604051808273ffffffffffffffffffffffffffffffffffffffff1673ffffffffffffffffffffffffffffffffffffffff16815260200191505060405180910390f35b3480156101d657600080fd5b506101f96004803603810190808035600019169060200190929190505050610914565b60405180826000191660001916815260200191505060405180910390f35b34801561022357600080fd5b5061028f600480360381019080803573ffffffffffffffffffffffffffffffffffffffff1690602001909291908035600019169060200190929190803560ff1690602001909291908035600019169060200190929190803560001916906020019092919050505061092c565b604051808215151515815260200191505060405180910390f35b3480156102b557600080fd5b506102e2600480360381019080803560001916906020019092919080359060200190929190505050610b07565b005b3480156102f057600080fd5b506103e2600480360381019080803573ffffffffffffffffffffffffffffffffffffffff16906020019092919080356000191690602001909291908035906020019082018035906020019080806020026020016040519081016040528093929190818152602001838360200280828437820191505050505050919291929080359060200190820180359060200190808060200260200160405190810160405280939291908181526020018383602002808284378201915050505050509192919290803560ff16906020019092919080356000191690602001909291908035600019169060200190929190505050610c55565b005b3480156103f057600080fd5b506104136004803603810190808035600019169060200190929190505050610d69565b6040518082815260200191505060405180910390f35b34801561043557600080fd5b50610500600480360381019080806060019060038060200260405190810160405280929190826003602002808284378201915050505050919291929080604001906002806020026040519081016040528092919082600260200280828437820191505050505091929192908060600190600380602002604051908101604052809291908260036020028082843782019150505050509192919290803560ff16906020019092919080356000191690602001909291908035600019169060200190929190505050610d81565b005b34801561050e57600080fd5b506105b06004803603810190808060600190600380602002604051908101604052809291908260036020028082843782019150505050509192919290806040019060028060200260405190810160405280929190826002602002808284378201915050505050919291929080606001906003806020026040519081016040528092919082600360200280828437820191505050505091929192905050506111fe565b60405180826000191660001916815260200191505060405180910390f35b3480156105da57600080fd5b506105fd600480360381019080803560001916906020019092919050505061145f565b60405180826000191660001916815260200191505060405180910390f35b610623611477565b6101006040519081016040528085600060038110151561063f57fe5b602002015173ffffffffffffffffffffffffffffffffffffffff16815260200185600160038110151561066e57fe5b602002015173ffffffffffffffffffffffffffffffffffffffff16815260200185600260038110151561069d57fe5b602002015173ffffffffffffffffffffffffffffffffffffffff1681526020018460006002811015156106cc57fe5b60200201516000191681526020018460016002811015156106e957fe5b602002015160001916815260200183600060038110151561070657fe5b6020020151815260200183600160038110151561071f57fe5b602002015181526020016107348686866111fe565b6000191681525090503373ffffffffffffffffffffffffffffffffffffffff16816020015173ffffffffffffffffffffffffffffffffffffffff1614806107aa57503373ffffffffffffffffffffffffffffffffffffffff16816000015173ffffffffffffffffffffffffffffffffffffffff16145b15156107b557600080fd5b33600160008360e001516000191660001916815260200190815260200160002060006101000a81548173ffffffffffffffffffffffffffffffffffffffff021916908373ffffffffffffffffffffffffffffffffffffffff1602179055503373ffffffffffffffffffffffffffffffffffffffff16816020015173ffffffffffffffffffffffffffffffffffffffff16826000015173ffffffffffffffffffffffffffffffffffffffff167f79516f66b149849e4f67eb42218ec68973a388e4b510cdfa4455a4b98139ceab84604001518560e00151604051808373ffffffffffffffffffffffffffffffffffffffff1673ffffffffffffffffffffffffffffffffffffffff16815260200182600019166000191681526020019250505060405180910390a450505050565b60016020528060005260406000206000915054906101000a900473ffffffffffffffffffffffffffffffffffffffff1681565b60036020528060005260406000206000915090505481565b6000606060006040805190810160405280601c81526020017f19457468657265756d205369676e6564204d6573736167653a0a333200000000815250915081876040516020018083805190602001908083835b6020831015156109a4578051825260208201915060208101905060208303925061097f565b6001836020036101000a0380198251168184511680821785525050505050509050018260001916600019168152602001925050506040516020818303038152906040526040518082805190602001908083835b602083101515610a1c57805182526020820191506020810190506020830392506109f7565b6001836020036101000a038019825116818451168082178552505050505050905001915050604051809103902090508773ffffffffffffffffffffffffffffffffffffffff16600182888888604051600081526020016040526040518085600019166000191681526020018460ff1660ff1681526020018360001916600019168152602001826000191660001916815260200194505050505060206040516020810390808403906000865af1158015610ad9573d6000803e3d6000fd5b5050506020604051035173ffffffffffffffffffffffffffffffffffffffff16149250505095945050505050565b600073ffffffffffffffffffffffffffffffffffffffff1660016000846000191660001916815260200190815260200160002060009054906101000a900473ffffffffffffffffffffffffffffffffffffffff1673ffffffffffffffffffffffffffffffffffffffff16141515610b7d57600080fd5b60006001026000191660008084600019166000191681526020019081526020016000205460001916141515610bb157600080fd5b600060026000846000191660001916815260200190815260200160002054141515610bdb57600080fd5b80600260008460001916600019168152602001908152602001600020819055503373ffffffffffffffffffffffffffffffffffffffff167fdad0ea24d4ee2def2b2ec746bb2c26dba66c8d45e981eb7a9c430b094d975a358360405180826000191660001916815260200191505060405180910390a25050565b600084518651141515610c6757600080fd5b610c74888886868661092c565b1515610c7f57600080fd5b600090505b8551811015610d5f573073ffffffffffffffffffffffffffffffffffffffff16638a93fe178783815181101515610cb757fe5b906020019060200201518784815181101515610ccf57fe5b906020019060200201516040518363ffffffff167c010000000000000000000000000000000000000000000000000000000002815260040180836000191660001916815260200182815260200192505050600060405180830381600087803b158015610d3a57600080fd5b505af1158015610d4e573d6000803e3d6000fd5b505050508080600101915050610c84565b5050505050505050565b60026020528060005260406000206000915090505481565b610d89611477565b61010060405190810160405280886000600381101515610da557fe5b602002015173ffffffffffffffffffffffffffffffffffffffff168152602001886001600381101515610dd457fe5b602002015173ffffffffffffffffffffffffffffffffffffffff168152602001886002600381101515610e0357fe5b602002015173ffffffffffffffffffffffffffffffffffffffff168152602001876000600281101515610e3257fe5b6020020151600019168152602001876001600281101515610e4f57fe5b6020020151600019168152602001866000600381101515610e6c57fe5b60200201518152602001866001600381101515610e8557fe5b60200201518152602001610e9a8989896111fe565b6000191681525090503373ffffffffffffffffffffffffffffffffffffffff16816020015173ffffffffffffffffffffffffffffffffffffffff16141515610ee157600080fd5b600460009054906101000a900473ffffffffffffffffffffffffffffffffffffffff1673ffffffffffffffffffffffffffffffffffffffff16632972b0f0826000015160016040518363ffffffff167c0100000000000000000000000000000000000000000000000000000000028152600401808373ffffffffffffffffffffffffffffffffffffffff1673ffffffffffffffffffffffffffffffffffffffff16815260200182815260200192505050602060405180830381600087803b158015610fab57600080fd5b505af1158015610fbf573d6000803e3d6000fd5b505050506040513d6020811015610fd557600080fd5b81019080805190602001909291905050501515610ff157600080fd5b600460009054906101000a900473ffffffffffffffffffffffffffffffffffffffff1673ffffffffffffffffffffffffffffffffffffffff16632972b0f03360026040518363ffffffff167c0100000000000000000000000000000000000000000000000000000000028152600401808373ffffffffffffffffffffffffffffffffffffffff1673ffffffffffffffffffffffffffffffffffffffff16815260200182815260200192505050602060405180830381600087803b1580156110b757600080fd5b505af11580156110cb573d6000803e3d6000fd5b505050506040513d60208110156110e157600080fd5b810190808051906020019092919050505015156110fd57600080fd5b61111281600001518260e0015186868661092c565b151561111d57600080fd5b80606001516000808360e00151600019166000191681526020019081526020016000208160001916905550806020015173ffffffffffffffffffffffffffffffffffffffff163373ffffffffffffffffffffffffffffffffffffffff167f8c409342b7b8fb5630e516a89ca1108602dda5f912822b26213319b4bf5ed81183604001518460e00151604051808373ffffffffffffffffffffffffffffffffffffffff1673ffffffffffffffffffffffffffffffffffffffff16815260200182600019166000191681526020019250505060405180910390a350505050505050565b60003084600060038110151561121057fe5b602002015185600160038110151561122457fe5b602002015186600260038110151561123857fe5b602002015186600060028110151561124c57fe5b602002015187600160028110151561126057fe5b602002015187600060038110151561127457fe5b602002015188600160038110151561128857fe5b602002015189600260038110151561129c57fe5b6020020151604051602001808a73ffffffffffffffffffffffffffffffffffffffff1673ffffffffffffffffffffffffffffffffffffffff166c010000000000000000000000000281526014018973ffffffffffffffffffffffffffffffffffffffff1673ffffffffffffffffffffffffffffffffffffffff166c010000000000000000000000000281526014018873ffffffffffffffffffffffffffffffffffffffff1673ffffffffffffffffffffffffffffffffffffffff166c010000000000000000000000000281526014018773ffffffffffffffffffffffffffffffffffffffff1673ffffffffffffffffffffffffffffffffffffffff166c010000000000000000000000000281526014018660001916600019168152602001856000191660001916815260200184815260200183815260200182815260200199505050505050505050506040516020818303038152906040526040518082805190602001908083835b6020831015156114295780518252602082019150602081019050602083039250611404565b6001836020036101000a038019825116818451168082178552505050505050905001915050604051809103902090509392505050565b60006020528060005260406000206000915090505481565b61010060405190810160405280600073ffffffffffffffffffffffffffffffffffffffff168152602001600073ffffffffffffffffffffffffffffffffffffffff168152602001600073ffffffffffffffffffffffffffffffffffffffff168152602001600080191681526020016000801916815260200160008152602001600081526020016000801916815250905600a165627a7a7230582009d2e20d9db46b3387aeeec8f6e5f98ea2353970f4983159c219be715ca208c40029",
  "source": "pragma solidity ^0.4.24;\n\nimport \"./Permissions.sol\";\n\ncontract TradeKernel {\n    // Error Codes\n    enum Errors {\n        TRADE_EXPIRED  // Trade has already expired\n    }\n\n    // Mappings of tradeHash => amount\n    mapping (bytes32 => bytes32) public confirmed;\n    // Mappings of tradeHash => canceller\n    mapping (bytes32 => address) public cancelled;\n    // Mappings of tradeHash => number tokens issued\n    mapping (bytes32 => uint) public verified;\n    // Mappings of tradeHash => sk\n    mapping (bytes32 => bytes32) public secretKeys;\n\n    address permissions;\n\n    event LogConfirmed(\n        address indexed investor,\n        address indexed broker,\n        address token,\n        bytes32 tradeHash\n    );\n\n    event LogCancel(\n        address indexed investor,\n        address indexed broker,\n        address token,\n        address indexed canceller,\n        bytes32 tradeHash\n    );\n\n    event LogVerified(\n        address indexed custodian,\n        bytes32 tradeHash\n    );\n\n    event LogError(uint8 indexed errorId, bytes32 indexed tradeHash);\n\n    struct Trade {\n        address investor;\n        address broker;\n        address token;\n        bytes32 nominalAmount;\n        bytes32 price;\n        uint executionDate;\n        uint expirationTimestampInSec;\n        bytes32 tradeHash;\n    }\n\n    constructor(address _permissions) public {\n        permissions = _permissions;\n    }\n\n    /*\n    * Core kernel functions\n    */\n\n    /// @dev Fills the input trade.\n    /// @param tradeAddresses Array of trade's investor, broker, token\n    /// @param tradeBytes Array of trade's ik1, ik2, ek1, ek2, nominalAmount, price\n    /// @param tradeValues Array of trade's executionDate, expirationTimestampInSec, and salt.\n    /// @param v ECDSA signature parameter v.\n    /// @param r ECDSA signature parameters r.\n    /// @param s ECDSA signature parameters s.\n    function confirmTrade(\n        address[3] tradeAddresses, \n        bytes32[2] tradeBytes, \n        uint[3] tradeValues,\n        uint8 v,\n        bytes32 r,\n        bytes32 s)\n        public\n    {   \n        Trade memory trade = Trade({\n            investor: tradeAddresses[0],\n            broker: tradeAddresses[1],\n            token: tradeAddresses[2],\n            nominalAmount: tradeBytes[0],\n            price: tradeBytes[1],\n            executionDate: tradeValues[0],\n            expirationTimestampInSec: tradeValues[1],\n            tradeHash: getTradeHash(tradeAddresses, tradeBytes, tradeValues)\n        });\n\n        require(trade.broker == msg.sender);\n        require(Permissions(permissions).isAuthorized(trade.investor,1));\n        require(Permissions(permissions).isAuthorized(msg.sender,2));\n\n        require(isValidSignature(\n            trade.investor,\n            trade.tradeHash,\n            v,\n            r,\n            s\n        ));\n\n        // if (block.timestamp >= trade.expirationTimestampInSec) {\n        //     emit LogError(uint8(Errors.ORDER_EXPIRED), trade.tradeHash);\n        //     require(false);\n        // }\n\n        confirmed[trade.tradeHash] = trade.nominalAmount;\n\n        emit LogConfirmed(\n            msg.sender,\n            trade.broker,\n            trade.token,\n            trade.tradeHash\n        );\n    }\n\n    /// @dev Cancels the input trade.\n    /// @param tradeAddresses Array of trade's investor, broker, token\n    /// @param tradeBytes Array of trade's ik1, ik2, ek1, ek2, nominalAmount, price\n    /// @param tradeValues Array of trade's executionDate, expirationTimestampInSec, and salt.\n    function cancelTrade(\n        address[3] tradeAddresses, \n        bytes32[2] tradeBytes, \n        uint[3] tradeValues)\n        public\n    {\n        Trade memory trade = Trade({\n            investor: tradeAddresses[0],\n            broker: tradeAddresses[1],\n            token: tradeAddresses[2],\n            nominalAmount: tradeBytes[0],\n            price: tradeBytes[1],\n            executionDate: tradeValues[0],\n            expirationTimestampInSec: tradeValues[1],\n            tradeHash: getTradeHash(tradeAddresses, tradeBytes, tradeValues)\n        });\n\n        require(trade.broker == msg.sender || trade.investor == msg.sender);\n\n        // if (block.timestamp >= trade.expirationTimestampInSec) {\n        //     emit LogError(uint8(Errors.ORDER_EXPIRED), trade.tradeHash);\n        //     require(false);\n        // }\n\n        cancelled[trade.tradeHash] = msg.sender;\n        \n        emit LogCancel(\n            trade.investor,\n            trade.broker,\n            trade.token,\n            msg.sender,\n            trade.tradeHash\n        );\n    }\n\n    function verifyTrade(bytes32 tradeHash, uint amount)\n        public\n    {\n        require(cancelled[tradeHash] == address(0));\n        require(confirmed[tradeHash] == bytes32(0));   \n        require(verified[tradeHash] == 0);\n\n        verified[tradeHash] = amount;\n\n        emit LogVerified(msg.sender, tradeHash);\n    }\n\n    function verifyTrade(\n        address broker,\n        bytes32 tradeHash,\n        bytes32[] tradeHashes, \n        uint[] amounts,\n        uint8 v,\n        bytes32 r,\n        bytes32 s)\n        public\n    {   \n        require(tradeHashes.length==amounts.length);\n        require(isValidSignature(\n            broker,\n            tradeHash,\n            v,\n            r,\n            s\n        ));\n\n        for(uint i = 0; i < tradeHashes.length; i++){\n            this.verifyTrade(tradeHashes[i], amounts[i]);\n        }\n    }\n\n    /*\n    * Constant public functions\n    */\n\n    /// @dev Calculates Keccak-256 hash of trade with specified parameters.\n    /// @param tradeAddresses Array of trade's investor, broker, token\n    /// @param tradeBytes Array of trade's nominalAmount, price\n    /// @param tradeValues Array of trade's executionDate, expirationTimestampInSec, and salt.\n    /// @return Keccak-256 hash of trade.\n    function getTradeHash(\n        address[3] tradeAddresses, \n        bytes32[2] tradeBytes, \n        uint[3] tradeValues)\n        public\n        view\n        returns (bytes32)\n    {\n        return keccak256(\n            abi.encodePacked(\n                address(this),\n                tradeAddresses[0], // investor\n                tradeAddresses[1], // broker\n                tradeAddresses[2], // token\n                tradeBytes[0],     // nominalAmount\n                tradeBytes[1],     // price\n                tradeValues[0],    // executionDate\n                tradeValues[1],    // expirationTimestampInSec\n                tradeValues[2]     // salt\n            )\n        );\n    }\n\n    /// @dev Verifies that an trade signature is valid.\n    /// @param signer address of signer.\n    /// @param hash Signed Keccak-256 hash.\n    /// @param v ECDSA signature parameter v.\n    /// @param r ECDSA signature parameters r.\n    /// @param s ECDSA signature parameters s.\n    /// @return Validity of trade signature.\n    function isValidSignature(\n        address signer,\n        bytes32 hash,\n        uint8 v,\n        bytes32 r,\n        bytes32 s)\n        public\n        pure\n        returns (bool)\n    {\n        bytes memory prefix = \"\\x19Ethereum Signed Message:\\n32\";\n        bytes32 prefixedHash = keccak256(abi.encodePacked(prefix, hash));\n        return ecrecover(prefixedHash, v, r, s) == signer;\n    }\n}",
  "sourcePath": "/Users/giblets/code/myprojects/ett/dapp/contracts/TradeKernel.sol",
  "compiler": {
    "name": "solc",
    "version": "0.4.24+commit.e67f0147.Emscripten.clang"
  },
  "schemaVersion": "2.0.1",
  "updatedAt": "2018-09-09T09:34:44.986Z"
}